:020000040800F2
:100000000080012009030008E1020008E302000863
:10001000E5020008E7020008E9020008000000000D
:10002000000000000000000000000000EB020008DB
:10003000ED02000800000000EF020008F1020008D5
:100040005903000859030008590300085903000820
:100050005903000859030008590300085903000810
:100060005903000859030008590300085903000800
:1000700059030008590300085903000859030008F0
:1000800059030008590300085903000859030008E0
:1000900059030008590300085903000859030008D0
:1000A00059030008590300085903000859030008C0
:1000B00059030008590300085903000859030008B0
:1000C00059030008590300085903000859030008A0
:1000D0005903000859030008590300085903000890
:1000E0005903000859030008590300085903000880
:1000F0005903000859030008590300085903000870
:10010000590300085903000859030008590300085F
:10011000590300085903000859030008590300084F
:10012000590300085903000859030008590300083F
:10013000590300085903000859030008590300082F
:10014000590300085903000859030008590300081F
:10015000590300085903000859030008590300080F
:1001600059030008590300085903000859030008FF
:100170005903000859030008590300080000000053
:080180005903000859030008AF
:1001880010B5054C237833B9044B13B10448AFF3C9
:1001980000800123237010BD24000020000000000F
:1001A800D40E000808B5034B1BB103490348AFF34D
:1001B800008008BD0000000028000020D40E0008C0
:1001C80000B597B04422002105A800F053FE142280
:1001D8000021684600F04EFE4FF4007000F05AFA15
:1001E80008B172B6FEE7102305930123CDE90B3061
:1001F8000F90602305A80D9300F012FB014608B18B
:1002080072B6FEE70F23CDE90030CDE90200049075
:10021800684600F085FD08B172B6FEE717B05DF8D4
:1002280004FB000070B586B000F0BAF8FFF7C8FF0D
:100238001422002101A800F01DFE184B1848DA6CA2
:10024800174E42F00402DA64DB6C03F004030093F7
:1002580000223F21009B00F00FFA3F220123CDE945
:1002680001230F48002301A9CDE9033300F026F943
:100278000C4D072429880122304600F0FDF9FA20A8
:1002880000F0B0F835F8041B0022304600F0F4F90D
:10029800FA2000F0A7F8013CECD1E9E70010024091
:1002A80000080048000000200A4B1A6E42F00102C4
:1002B8001A661A6E82B002F001020092009A9A6DD4
:1002C80042F080529A659B6D03F080530193019B25
:1002D80002B0704700100240FEE7FEE7FEE7FEE7C7
:1002E800FEE770477047704700F06AB8034AD2F8D3
:1002F800883043F47003C2F88830704700ED00E09E
:10030800DFF834D0FFF7F2FF0C480D490D4A0023FF
:1003180002E0D458C4500433C4188C42F9D30A4AB2
:100328000A4C002301E013600432A242FBD300F020
:10033800A9FDFFF777FFFEE70080012000000020FD
:1003480024000020340F000824000020440000206E
:10035800FEE7000038B50F4B1A7805460AB90120A8
:1003680038BD4FF47A73B3FBF2F30B4A1068B0FB55
:10037800F3F000F08FF804460028F0D10F2DEED8E6
:10038800024629464FF0FF3000F052F8034B204652
:100398001D60E5E71C000020180000202000002058
:1003A80010B5032000F032F80F20FFF7D3FF044602
:1003B80018B9FFF779FF204610BD0124FBE70000BC
:1003C800034A044B11681B780B441360704700BF45
:1003D800400000201C000020014B1868704700BF37
:1003E8004000002038B50446FFF7F6FF631C1CBF29
:1003F800054B1B78054618BFE418FFF7EDFF431BB4
:10040800A342FAD338BD00BF1C0000200749CA68C0
:1004180022F4E0620302120403F4E063120C1343B3
:1004280043F0BF6343F40033CB60704700ED00E056
:10043800164B30B5DC68C4F30224C4F10703251D4C
:10044800042B28BF0423062D4FF0FF358CBF033C37
:10045800002405FA03F321EA0303A54022EA050272
:10046800A340002843EA0203ACBF00F16040084AF9
:100478004FEA0313B8BF00F00F00DBB2AABF00F5C4
:100488006140135480F8003330BD00BF00ED00E038
:1004980014ED00E00138B0F1807F0BD24FF0E0237B
:1004A800054A5861F02182F823100020072298613C
:1004B8001A6170470120704700ED00E02DE9F74F01
:1004C800DFF8B091694C00230A6832FA03F502D1CB
:1004D80003B0BDE8F08F4FF0010E0EFA03FE1EEADE
:1004E800020200F090804D6805F003064FEA4308C9
:1004F8004FF0030C771E0CFA08FC012F6FEA0C0C66
:1005080000F28380876807EA0C0ACF6807FA08F7C1
:1005180047EA0A078760476827EA0E0EC5F30017FF
:100528009F4047EA0E074760C76807EA0C0E8F68C6
:1005380007FA08F747EA0E07022EC76071D0076866
:1005480006FA08F607EA0C073E4315F4403F066032
:1005580059D0D9F8606046F00106C9F86060D9F84A
:10056800606023F0030707F1804706F0010607F5EE
:100578008037019603F0030E019EBE684FEA8E0E87
:100588004FF00F0C0CFA0EFCB0F1904F26EA0C0C51
:100598005FD0374EB0425ED006F58066B0425CD080
:1005A80006F58066B0425AD006F58066B04258D04B
:1005B80006F58066B04256D006F58066B0420CBF9C
:1005C8000626072606FA0EF646EA0C06BE60A66858
:1005D800D74315F4801F0CBF3E401643A660E6685B
:1005E80015F4001F0CBF3E401643E660666815F41C
:1005F800003F0CBF3E40164366602668ED0354BFBB
:100608003E401643266001335EE7032E8CD1C76A4D
:1006180027EA0E0EC5F3C0079F4047EA0E07C762D8
:100628008DE74FEAD30A00EB8A0A03F0070BDAF8E2
:1006380020704FEA8B0B4FF00F0E0EFA0BFE27EAD5
:100648000E0E0F6907FA0BF747EA0E07CAF8207073
:1006580075E70026B6E70126B4E70226B2E70326C7
:10066800B0E70426AEE70526ACE700BF000401406A
:1006780000040048001002400AB18161704781629D
:1006880070470000024B186800F4C060704700BF54
:1006980000700040174A1368B0F5007F03F4C06388
:1006A8001DD1B3F5007F01D100207047136823F4F2
:1006B800C06343F4007313600F4B1B6832214B4334
:1006C8000E49B3FBF1F301335169490500D523B94C
:1006D80053695B05E8D503207047013BF4E7B3F5A0
:1006E800806F1FBF136823F4C06343F480631360F3
:1006F800DAE700BF007000401800002040420F00F9
:1007080037B51E4DAB6DDA00044618D5FFF7BAFFB2
:10071800B0F5007F23D1802C29D9A02C8CBF0224CE
:10072800012417490A6822F0070222430A60086870
:1007380000F00700001B18BF012003B030BDAB6DEF
:1007480043F08053AB65AB6D03F080530193019B7D
:10075800FFF798FFAB6D23F08053AB65D8E7802C8B
:1007680007D808D0A4F170035C425C41D9E70024A3
:10077800D7E70324D5E70224D3E700BF00100240DF
:1007880000200240224B9A68D96812F00C0205D06A
:100798000C2A15D101F00301012918D119681D4847
:1007A800090755BFD3F894101968C1F30321C1F3A1
:1007B800031150F821004AB30C2A09D000207047D1
:1007C800042A22D0082A144818BF002070470020A5
:1007D800DA6802F00302022A15D00F49032A08BF7B
:1007E8000846D968DA68C2F306224243D868C0F3DB
:1007F8004160C1F30211013001314000B2FBF1F256
:10080800B2FBF0F070470548EBE70448704700BFBB
:1008180000100240FC0E000800127A000024F400C8
:100828002DE9F743054618B9012003B0BDE8F08368
:10083800924C0368A668E768DB0606F00C0607F02A
:1008480003073DD51EB10C2E66D1012F64D1236854
:10085800980702D5AB69002BE6D02368286A1907E8
:1008680056BFD4F8943023681B0903F0F00398426C
:100878003BD9FFF745FF0028D6D1236843F008038A
:10088800236023682A6A23F0F00313432360636814
:10089800EA6923F47F4343EA02236360FFF772FFA8
:1008A800A368774AC3F30313D35C03F01F03D8404C
:1008B800744B1860744B1868FFF74CFD0028B4D1CE
:1008C8002B68D8075FD42B68990700F19E802B68A6
:1008D800180700F1DB802B68590700F10181AB6A2A
:1008E800002B40F06A8100209FE7236843F008034B
:1008F8002360236823F0F003034323606368EA69F5
:1009080023F47F4343EA02236360002EC6D1FFF736
:10091800F7FE0028C2D087E7AB691BB3236843F012
:1009280001032360FFF758FD804623689A0711D515
:10093800236843F00803236023682A6A23F0F0033E
:10094800134323606368EA6923F47F4343EA02237D
:100958006360B5E7FFF740FDA0EB08000228E4D983
:10096800032062E7236823F001032360FFF734FDC7
:10097800804623689B07A3D5FFF72EFDA0EB080050
:100988000228F6D9ECE7082E03D00C2E08D1032F45
:1009980006D123689A0396D56B68002B93D143E759
:1009A8006B68B3F5803F10D1236843F4803323602C
:1009B800FFF712FD804623689B0384D4FFF70CFDE4
:1009C800A0EB08006428F6D9CAE7B3F5A02F04D134
:1009D800236843F480232360E6E7226822F4803208
:1009E8002260226822F480222260002BE0D1FFF7E7
:1009F800F3FC8046236898037FF565AFFFF7ECFCAE
:100A0800A0EB08006428F5D9AAE7042E03D00C2E21
:100A180010D1022F0ED12368590503D5EB68002B9E
:100A28003FF402AF63682A6923F0F85343EA02638C
:100A380063604CE7EB687BB1236843F48073236001
:100A4800FFF7CAFC074623685A05EBD4FFF7C4FC36
:100A5800C01B0228F7D983E7236823F48073236037
:100A6800FFF7BAFC074623685B057FF530AFFFF751
:100A7800B3FCC01B0228F6D972E700BF0010024081
:100A8800EC0E000818000020200000206B699BB1C4
:100A9800D4F8943043F00103C4F89430FFF79CFC79
:100AA8000746D4F894309A073FF515AFFFF794FC42
:100AB800C01B0228F5D953E7D4F8943023F001037A
:100AC800C4F89430FFF788FC0746D4F894309B07A5
:100AD8007FF501AFFFF780FCC01B0228F5D93FE77F
:100AE800A36DDF0029D4A36D43F08053A365A36DE4
:100AF80003F080530193019B4FF00108854F3B6839
:100B0800D8051DD5AB68012B2BD1D4F8903043F014
:100B18000103C4F89030FFF75FFC41F288390746BB
:100B2800D4F890309A0742D5B8F1000F3FF4D7AE09
:100B3800A36D23F08053A365D1E64FF00008DDE7ED
:100B48003B6843F480733B60FFF746FC81463B6893
:100B5800D905D7D4FFF740FCA0EB09000228F6D945
:100B6800FEE6052B06D1D4F8903043F00403C4F810
:100B78009030CAE7D4F8902022F00102C4F89020FF
:100B8800D4F8902022F00402C4F89020002BC2D19F
:100B9800FFF722FC41F288390746D4F890309B07CA
:100BA800C2D5FFF719FCC01B4845F6D9D8E6FFF7B0
:100BB80013FCC01B4845B3D9D2E6022B40F08F8006
:100BC800E368EA6A03F00301914224D1296B03F038
:100BD80070020139B2EB011F1DD1696B03F4FE42AB
:100BE800B2EB012F17D1AA6B073A03F4003118BFF3
:100BF800012291420FD1EA6B520803F4C001013A75
:100C0800B1EB425F07D12A6C520803F0C063013A86
:100C1800B3EB426F4AD00C2E3FF406AE23685F0157
:100C28003FF502AE2368DE003FF5FEAD236823F0F2
:100C380080732360FFF7D0FB0646236898012FD402
:100C4800E268354B1340EA6A13436A6B43EA0223AE
:100C58002A6B013A43EA0213AA6B120943EA424398
:100C6800EA6B5208013A43EA42532A6C5208013AA5
:100C780043EA4263E360236843F080732360E368D8
:100C880043F08073E360FFF7A7FB054623689901EB
:100C98003FF529AEFFF7A0FB401B0228F6D95FE617
:100CA800FFF79AFB801B0228C7D959E623689A01E7
:100CB8003FF519AE236843F080732360E36843F07F
:100CC8008073E360FFF788FB054623689B013FF5C7
:100CD8000AAEFFF781FB401B0228F6D940E60C2E2E
:100CE8003FF4A2AD236823F080732360FFF774FB01
:100CF8000546236813F0007305D1E168074A0A40E6
:100D0800E260184691E5FFF767FB401B0228F0D91F
:100D180026E600BF007000408C809DF9FCFFEEFEC7
:100D28002DE9F0410D46044610B90120BDE8F081D7
:100D38004B4A136803F007038B422CD321688807BA
:100D480034D4C9073FD421688A0768D4444A136851
:100D580003F00703AB426FD811F0040F414D77D170
:100D68000B0706D5AB68226923F4605343EAC20334
:100D7800AB60FFF707FDAB683B4AC3F30313BDE85D
:100D8800F041D35C03F01F03D840384B1860384B50
:100D98001868FFF7DFBA136823F007030B431360E3
:100DA800136803F007038B42BFD1C7E72D4AA06839
:100DB800936803F0F003984281BF936823F0F0032F
:100DC80003439360BDE76268264E032A33681AD14D
:100DD80013F0007FA9D0B36823F003031343B36073
:100DE800FFF7FAFA41F288380746B368626803F0F9
:100DF8000C03B3EB820FA6D0FFF7EEFAC01B4045F9
:100E0800F3D9032092E7022A02D113F4003FE1E765
:100E180012B913F0020FDDE713F4806FDAE7114A15
:100E2800A068936803F0F00398423FBF936823F0EB
:100E3800F0030343936089E7136823F007032B4308
:100E48001360136803F00703AB427FF46EAF83E7C8
:100E5800AB68E26823F4E0631343AB6080E700BF4C
:100E68000020024000100240EC0E0008180000208C
:100E78002000002002440346934200D1704703F843
:100E8800011BF9E770B50D4D0D4C641BA41000262D
:100E9800A64209D10B4D0C4C00F018F8641BA410A5
:100EA8000026A64205D170BD55F8043B9847013687
:100EB800EEE755F8043B98470136F2E72C0F000897
:100EC8002C0F00082C0F0008300F0008F8B500BFE1
:100ED800F8BC08BC9E467047F8B500BFF8BC08BC13
:040EE8009E4670476B
:100EEC0000000000000000000102030406070809CE
:100EFC00A0860100400D0300801A060000350C008E
:100F0C0040420F0080841E0000093D0000127A0050
:100F1C000024F40000366E010048E801006CDC028D
:040F2C00AD0100080B
:040F3000890100082B
:100F3400010000000200000004000000080000009E
:100F4400100000002000000000093D000100000026
:040F54001000000089
:0400000508000309E3
:00000001FF
